{
  "_format": "hh-sol-artifact-1",
  "contractName": "CertificateStore",
  "sourceName": "contracts/CertiChain.sol",
  "abi": [
    {
      "inputs": [],
      "stateMutability": "nonpayable",
      "type": "constructor"
    },
    {
      "anonymous": false,
      "inputs": [
        {
          "indexed": true,
          "internalType": "address",
          "name": "certifier",
          "type": "address"
        },
        {
          "indexed": true,
          "internalType": "address",
          "name": "student",
          "type": "address"
        },
        {
          "indexed": false,
          "internalType": "string",
          "name": "ipfsHash",
          "type": "string"
        },
        {
          "indexed": false,
          "internalType": "uint256",
          "name": "timestamp",
          "type": "uint256"
        }
      ],
      "name": "FileCertified",
      "type": "event"
    },
    {
      "inputs": [
        {
          "internalType": "address",
          "name": "certifier",
          "type": "address"
        }
      ],
      "name": "addAuthorizedCertifier",
      "outputs": [],
      "stateMutability": "nonpayable",
      "type": "function"
    },
    {
      "inputs": [
        {
          "internalType": "string",
          "name": "name",
          "type": "string"
        },
        {
          "internalType": "string",
          "name": "organization",
          "type": "string"
        },
        {
          "internalType": "string",
          "name": "details",
          "type": "string"
        },
        {
          "internalType": "address",
          "name": "student",
          "type": "address"
        },
        {
          "internalType": "string",
          "name": "ipfsHash",
          "type": "string"
        }
      ],
      "name": "certifyFile",
      "outputs": [],
      "stateMutability": "payable",
      "type": "function"
    },
    {
      "inputs": [
        {
          "internalType": "string",
          "name": "ipfsHash",
          "type": "string"
        }
      ],
      "name": "getCertificateByHash",
      "outputs": [
        {
          "components": [
            {
              "internalType": "string",
              "name": "name",
              "type": "string"
            },
            {
              "internalType": "string",
              "name": "organization",
              "type": "string"
            },
            {
              "internalType": "string",
              "name": "details",
              "type": "string"
            },
            {
              "internalType": "address",
              "name": "certifier",
              "type": "address"
            },
            {
              "internalType": "address",
              "name": "student",
              "type": "address"
            },
            {
              "internalType": "string",
              "name": "ipfsHash",
              "type": "string"
            },
            {
              "internalType": "uint256",
              "name": "timestamp",
              "type": "uint256"
            }
          ],
          "internalType": "struct CertificateStore.Certificate",
          "name": "",
          "type": "tuple"
        }
      ],
      "stateMutability": "view",
      "type": "function"
    },
    {
      "inputs": [
        {
          "internalType": "uint256",
          "name": "index",
          "type": "uint256"
        }
      ],
      "name": "getCertificateByIndex",
      "outputs": [
        {
          "components": [
            {
              "internalType": "string",
              "name": "name",
              "type": "string"
            },
            {
              "internalType": "string",
              "name": "organization",
              "type": "string"
            },
            {
              "internalType": "string",
              "name": "details",
              "type": "string"
            },
            {
              "internalType": "address",
              "name": "certifier",
              "type": "address"
            },
            {
              "internalType": "address",
              "name": "student",
              "type": "address"
            },
            {
              "internalType": "string",
              "name": "ipfsHash",
              "type": "string"
            },
            {
              "internalType": "uint256",
              "name": "timestamp",
              "type": "uint256"
            }
          ],
          "internalType": "struct CertificateStore.Certificate",
          "name": "",
          "type": "tuple"
        }
      ],
      "stateMutability": "view",
      "type": "function"
    },
    {
      "inputs": [
        {
          "internalType": "address",
          "name": "certifier",
          "type": "address"
        }
      ],
      "name": "removeAuthorizedCertifier",
      "outputs": [],
      "stateMutability": "nonpayable",
      "type": "function"
    }
  ],
  "bytecode": "0x608060405234801561001057600080fd5b50336000806101000a81548173ffffffffffffffffffffffffffffffffffffffff021916908373ffffffffffffffffffffffffffffffffffffffff160217905550611ac8806100606000396000f3fe60806040526004361061004a5760003560e01c80630a28e90c1461004f5780631fb9b7f51461008c57806366242c5e146100b557806381cb0fad146100f2578063cdc4f8a51461010e575b600080fd5b34801561005b57600080fd5b5061007660048036038101906100719190610f9f565b610137565b604051610083919061115d565b60405180910390f35b34801561009857600080fd5b506100b360048036038101906100ae91906111ab565b610532565b005b3480156100c157600080fd5b506100dc60048036038101906100d7919061130d565b61061b565b6040516100e9919061115d565b60405180910390f35b61010c60048036038101906101079190611356565b6109ca565b005b34801561011a57600080fd5b50610135600480360381019061013091906111ab565b610e04565b005b61013f610eec565b600260003373ffffffffffffffffffffffffffffffffffffffff1673ffffffffffffffffffffffffffffffffffffffff1681526020019081526020016000208054905082106101c3576040517f08c379a00000000000000000000000000000000000000000000000000000000081526004016101ba9061149e565b60405180910390fd5b600260003373ffffffffffffffffffffffffffffffffffffffff1673ffffffffffffffffffffffffffffffffffffffff1681526020019081526020016000208281548110610214576102136114be565b5b90600052602060002090600702016040518060e001604052908160008201805461023d9061151c565b80601f01602080910402602001604051908101604052809291908181526020018280546102699061151c565b80156102b65780601f1061028b576101008083540402835291602001916102b6565b820191906000526020600020905b81548152906001019060200180831161029957829003601f168201915b505050505081526020016001820180546102cf9061151c565b80601f01602080910402602001604051908101604052809291908181526020018280546102fb9061151c565b80156103485780601f1061031d57610100808354040283529160200191610348565b820191906000526020600020905b81548152906001019060200180831161032b57829003601f168201915b505050505081526020016002820180546103619061151c565b80601f016020809104026020016040519081016040528092919081815260200182805461038d9061151c565b80156103da5780601f106103af576101008083540402835291602001916103da565b820191906000526020600020905b8154815290600101906020018083116103bd57829003601f168201915b505050505081526020016003820160009054906101000a900473ffffffffffffffffffffffffffffffffffffffff1673ffffffffffffffffffffffffffffffffffffffff1673ffffffffffffffffffffffffffffffffffffffff1681526020016004820160009054906101000a900473ffffffffffffffffffffffffffffffffffffffff1673ffffffffffffffffffffffffffffffffffffffff1673ffffffffffffffffffffffffffffffffffffffff16815260200160058201805461049f9061151c565b80601f01602080910402602001604051908101604052809291908181526020018280546104cb9061151c565b80156105185780601f106104ed57610100808354040283529160200191610518565b820191906000526020600020905b8154815290600101906020018083116104fb57829003601f168201915b505050505081526020016006820154815250509050919050565b60008054906101000a900473ffffffffffffffffffffffffffffffffffffffff1673ffffffffffffffffffffffffffffffffffffffff163373ffffffffffffffffffffffffffffffffffffffff16146105c0576040517f08c379a00000000000000000000000000000000000000000000000000000000081526004016105b7906115bf565b60405180910390fd5b6000600160008373ffffffffffffffffffffffffffffffffffffffff1673ffffffffffffffffffffffffffffffffffffffff16815260200190815260200160002060006101000a81548160ff02191690831515021790555050565b610623610eec565b6000600383604051610635919061161b565b90815260200160405180910390206040518060e001604052908160008201805461065e9061151c565b80601f016020809104026020016040519081016040528092919081815260200182805461068a9061151c565b80156106d75780601f106106ac576101008083540402835291602001916106d7565b820191906000526020600020905b8154815290600101906020018083116106ba57829003601f168201915b505050505081526020016001820180546106f09061151c565b80601f016020809104026020016040519081016040528092919081815260200182805461071c9061151c565b80156107695780601f1061073e57610100808354040283529160200191610769565b820191906000526020600020905b81548152906001019060200180831161074c57829003601f168201915b505050505081526020016002820180546107829061151c565b80601f01602080910402602001604051908101604052809291908181526020018280546107ae9061151c565b80156107fb5780601f106107d0576101008083540402835291602001916107fb565b820191906000526020600020905b8154815290600101906020018083116107de57829003601f168201915b505050505081526020016003820160009054906101000a900473ffffffffffffffffffffffffffffffffffffffff1673ffffffffffffffffffffffffffffffffffffffff1673ffffffffffffffffffffffffffffffffffffffff1681526020016004820160009054906101000a900473ffffffffffffffffffffffffffffffffffffffff1673ffffffffffffffffffffffffffffffffffffffff1673ffffffffffffffffffffffffffffffffffffffff1681526020016005820180546108c09061151c565b80601f01602080910402602001604051908101604052809291908181526020018280546108ec9061151c565b80156109395780601f1061090e57610100808354040283529160200191610939565b820191906000526020600020905b81548152906001019060200180831161091c57829003601f168201915b505050505081526020016006820154815250509050600073ffffffffffffffffffffffffffffffffffffffff16816080015173ffffffffffffffffffffffffffffffffffffffff16036109c1576040517f08c379a00000000000000000000000000000000000000000000000000000000081526004016109b89061167e565b60405180910390fd5b80915050919050565b600160003373ffffffffffffffffffffffffffffffffffffffff1673ffffffffffffffffffffffffffffffffffffffff16815260200190815260200160002060009054906101000a900460ff16610a56576040517f08c379a0000000000000000000000000000000000000000000000000000000008152600401610a4d90611710565b60405180910390fd5b600073ffffffffffffffffffffffffffffffffffffffff168273ffffffffffffffffffffffffffffffffffffffff1603610ac5576040517f08c379a0000000000000000000000000000000000000000000000000000000008152600401610abc9061177c565b60405180910390fd5b60006040518060e001604052808781526020018681526020018581526020013373ffffffffffffffffffffffffffffffffffffffff1681526020018473ffffffffffffffffffffffffffffffffffffffff168152602001838152602001428152509050600260008473ffffffffffffffffffffffffffffffffffffffff1673ffffffffffffffffffffffffffffffffffffffff1681526020019081526020016000208190806001815401808255809150506001900390600052602060002090600702016000909190919091506000820151816000019081610ba69190611948565b506020820151816001019081610bbc9190611948565b506040820151816002019081610bd29190611948565b5060608201518160030160006101000a81548173ffffffffffffffffffffffffffffffffffffffff021916908373ffffffffffffffffffffffffffffffffffffffff16021790555060808201518160040160006101000a81548173ffffffffffffffffffffffffffffffffffffffff021916908373ffffffffffffffffffffffffffffffffffffffff16021790555060a0820151816005019081610c769190611948565b5060c08201518160060155505080600383604051610c94919061161b565b90815260200160405180910390206000820151816000019081610cb79190611948565b506020820151816001019081610ccd9190611948565b506040820151816002019081610ce39190611948565b5060608201518160030160006101000a81548173ffffffffffffffffffffffffffffffffffffffff021916908373ffffffffffffffffffffffffffffffffffffffff16021790555060808201518160040160006101000a81548173ffffffffffffffffffffffffffffffffffffffff021916908373ffffffffffffffffffffffffffffffffffffffff16021790555060a0820151816005019081610d879190611948565b5060c082015181600601559050508273ffffffffffffffffffffffffffffffffffffffff163373ffffffffffffffffffffffffffffffffffffffff167f7fa2379677782874d0dfd2981d5ad74b871de3f32334ea68a5fb0d3c756ab6008442604051610df4929190611a62565b60405180910390a3505050505050565b60008054906101000a900473ffffffffffffffffffffffffffffffffffffffff1673ffffffffffffffffffffffffffffffffffffffff163373ffffffffffffffffffffffffffffffffffffffff1614610e92576040517f08c379a0000000000000000000000000000000000000000000000000000000008152600401610e89906115bf565b60405180910390fd5b60018060008373ffffffffffffffffffffffffffffffffffffffff1673ffffffffffffffffffffffffffffffffffffffff16815260200190815260200160002060006101000a81548160ff02191690831515021790555050565b6040518060e00160405280606081526020016060815260200160608152602001600073ffffffffffffffffffffffffffffffffffffffff168152602001600073ffffffffffffffffffffffffffffffffffffffff16815260200160608152602001600081525090565b6000604051905090565b600080fd5b600080fd5b6000819050919050565b610f7c81610f69565b8114610f8757600080fd5b50565b600081359050610f9981610f73565b92915050565b600060208284031215610fb557610fb4610f5f565b5b6000610fc384828501610f8a565b91505092915050565b600081519050919050565b600082825260208201905092915050565b60005b83811015611006578082015181840152602081019050610feb565b60008484015250505050565b6000601f19601f8301169050919050565b600061102e82610fcc565b6110388185610fd7565b9350611048818560208601610fe8565b61105181611012565b840191505092915050565b600073ffffffffffffffffffffffffffffffffffffffff82169050919050565b60006110878261105c565b9050919050565b6110978161107c565b82525050565b6110a681610f69565b82525050565b600060e08301600083015184820360008601526110c98282611023565b915050602083015184820360208601526110e38282611023565b915050604083015184820360408601526110fd8282611023565b9150506060830151611112606086018261108e565b506080830151611125608086018261108e565b5060a083015184820360a086015261113d8282611023565b91505060c083015161115260c086018261109d565b508091505092915050565b6000602082019050818103600083015261117781846110ac565b905092915050565b6111888161107c565b811461119357600080fd5b50565b6000813590506111a58161117f565b92915050565b6000602082840312156111c1576111c0610f5f565b5b60006111cf84828501611196565b91505092915050565b600080fd5b600080fd5b7f4e487b7100000000000000000000000000000000000000000000000000000000600052604160045260246000fd5b61121a82611012565b810181811067ffffffffffffffff82111715611239576112386111e2565b5b80604052505050565b600061124c610f55565b90506112588282611211565b919050565b600067ffffffffffffffff821115611278576112776111e2565b5b61128182611012565b9050602081019050919050565b82818337600083830152505050565b60006112b06112ab8461125d565b611242565b9050828152602081018484840111156112cc576112cb6111dd565b5b6112d784828561128e565b509392505050565b600082601f8301126112f4576112f36111d8565b5b813561130484826020860161129d565b91505092915050565b60006020828403121561132357611322610f5f565b5b600082013567ffffffffffffffff81111561134157611340610f64565b5b61134d848285016112df565b91505092915050565b600080600080600060a0868803121561137257611371610f5f565b5b600086013567ffffffffffffffff8111156113905761138f610f64565b5b61139c888289016112df565b955050602086013567ffffffffffffffff8111156113bd576113bc610f64565b5b6113c9888289016112df565b945050604086013567ffffffffffffffff8111156113ea576113e9610f64565b5b6113f6888289016112df565b935050606061140788828901611196565b925050608086013567ffffffffffffffff81111561142857611427610f64565b5b611434888289016112df565b9150509295509295909350565b600082825260208201905092915050565b7f496e76616c696420696e64657800000000000000000000000000000000000000600082015250565b6000611488600d83611441565b915061149382611452565b602082019050919050565b600060208201905081810360008301526114b78161147b565b9050919050565b7f4e487b7100000000000000000000000000000000000000000000000000000000600052603260045260246000fd5b7f4e487b7100000000000000000000000000000000000000000000000000000000600052602260045260246000fd5b6000600282049050600182168061153457607f821691505b602082108103611547576115466114ed565b5b50919050565b7f4f6e6c7920636f6e7472616374206f776e65722063616e2063616c6c2074686960008201527f732066756e6374696f6e2e000000000000000000000000000000000000000000602082015250565b60006115a9602b83611441565b91506115b48261154d565b604082019050919050565b600060208201905081810360008301526115d88161159c565b9050919050565b600081905092915050565b60006115f582610fcc565b6115ff81856115df565b935061160f818560208601610fe8565b80840191505092915050565b600061162782846115ea565b915081905092915050565b7f4365727469666963617465206e6f7420666f756e640000000000000000000000600082015250565b6000611668601583611441565b915061167382611632565b602082019050919050565b600060208201905081810360008301526116978161165b565b9050919050565b7f43616c6c6572206973206e6f7420616e20617574686f72697a6564206365727460008201527f6966696572000000000000000000000000000000000000000000000000000000602082015250565b60006116fa602583611441565b91506117058261169e565b604082019050919050565b60006020820190508181036000830152611729816116ed565b9050919050565b7f496e76616c69642073747564656e742061646472657373000000000000000000600082015250565b6000611766601783611441565b915061177182611730565b602082019050919050565b6000602082019050818103600083015261179581611759565b9050919050565b60008190508160005260206000209050919050565b60006020601f8301049050919050565b600082821b905092915050565b6000600883026117fe7fffffffffffffffffffffffffffffffffffffffffffffffffffffffffffffffff826117c1565b61180886836117c1565b95508019841693508086168417925050509392505050565b6000819050919050565b600061184561184061183b84610f69565b611820565b610f69565b9050919050565b6000819050919050565b61185f8361182a565b61187361186b8261184c565b8484546117ce565b825550505050565b600090565b61188861187b565b611893818484611856565b505050565b5b818110156118b7576118ac600082611880565b600181019050611899565b5050565b601f8211156118fc576118cd8161179c565b6118d6846117b1565b810160208510156118e5578190505b6118f96118f1856117b1565b830182611898565b50505b505050565b600082821c905092915050565b600061191f60001984600802611901565b1980831691505092915050565b6000611938838361190e565b9150826002028217905092915050565b61195182610fcc565b67ffffffffffffffff81111561196a576119696111e2565b5b611974825461151c565b61197f8282856118bb565b600060209050601f8311600181146119b257600084156119a0578287015190505b6119aa858261192c565b865550611a12565b601f1984166119c08661179c565b60005b828110156119e8578489015182556001820191506020850194506020810190506119c3565b86831015611a055784890151611a01601f89168261190e565b8355505b6001600288020188555050505b505050505050565b6000611a2582610fcc565b611a2f8185611441565b9350611a3f818560208601610fe8565b611a4881611012565b840191505092915050565b611a5c81610f69565b82525050565b60006040820190508181036000830152611a7c8185611a1a565b9050611a8b6020830184611a53565b939250505056fea2646970667358221220fa76307b6964e32560829a805afe5d7ee873cad1c8f9229fc5d79ebba2587fa164736f6c63430008110033",
  "linkReferences": {},
  "deployedLinkReferences": {}
}